:020000040000FA
:1000000000009F28BA002F08B9002E082D08BB0059
:100010003B0C03180D2883128512031C1128831230
:1000200085163A083904031D1B2883120510851014
:10003000051105129E283908013A031D29283A089E
:10004000003A031D29288312051485100511051295
:100050009E283908023A031D37283A08003A031D42
:100060003728831205108514051105129E283908BA
:10007000033A031D45283A08003A031D4528831218
:1000800005148514051105129E283908043A031D2C
:1000900053283A08003A031D53288312051085108F
:1000A000051505129E283908053A031D61283A08EE
:1000B000003A031D612883120514851005150512E9
:1000C0009E283908063A031D6F283A08003A031D96
:1000D0006F28831205108514051505129E2839080E
:1000E000073A031D7D283A08003A031D7D28831234
:1000F00005148514051505129E283908083A031DB4
:100100008B283A08003A031D8B28831205108510AE
:10011000051105169E283908093A031D99283A0841
:10012000003A031D99288312051485100511051640
:100130009E28831205148514051505160800C43081
:10014000AE000130AF008030000000004E21000002
:10015000000083120000BD002F08BC00C630BE00A6
:100160000130BF00831200003C08C0003D08C10000
:10017000FF30BC07031CBD034108400403193729A5
:1001800004303E07C000C101C10D3F08C10740084F
:10019000AE004108AF008030000000004E2100009A
:1001A000000083120000C3002F08C2003E08AE000A
:1001B0003F08AF008030000000004E21000000002A
:1001C00083120000C500C1002F08C000C400023027
:1001D0003E07C000C101C10D3F08C1074008AE0085
:1001E0004108AF008030000000004E2100000000F8
:1001F00083120000C100C7002F08C600C000831290
:1002000000004208C6004308C700FF30C207031CB5
:10021000C30347084604031930294408AE004508C3
:10022000AF008030000000003B210000000083127E
:100230000000C60040088312031384008313831256
:1002400000004118831746088312031380008312AD
:100250000000C40A0319C50AC00A0319C10AFF280D
:10026000063083120000BE070318BF0AB228000040
:1002700000006F290800003A03194229803A031947
:10028000492900342E08840083132F18831700088F
:1002900008002F088A002E0882000800003A03197F
:1002A0005629803A03196029AF0100342E088400D2
:1002B00083132F1883170008AF00840A0008080072
:1002C000000000004921AD00AE0FAF03AF0A0000EF
:1002D00000004921AC002D08AF002C08080083164F
:1002E0009F0183129F0107309900831699010830FE
:1002F000850083128501B00183128519B00A300888
:10030000013A03199C290030AD000030AE000830DE
:10031000AF00003002200130AF0000309D210130DD
:10032000AD000030AE000530AF00003002200130DB
:10033000AF0000309D217B290800B2002F08B100DA
:10034000B301B40132083402031DA8293108330275
:100350000318C329FB30B5000430B600FF30350761
:10036000B700FF30B80036080318360FB807370853
:10037000B5003808B60038083704031DAE29B30AA3
:100380000319B40AA229080001340034CC34013422
:0A0390004834003401340034003416
:00000001FF
