:020000040000FA
:100000000000A82983169F010730831299008316E8
:10001000990108308500831285010A30B000B101D2
:100020000A30B200B301B401B501B601B701B8019D
:10003000B901BA01BB01B60A0319B70AB80A031914
:10004000B90ABC0183128519BC0A3C08013A031D98
:1000500052280130BA00BB010030AD000030AE00C4
:100060003008AF003108F52001303807BC00BD0171
:10007000BD0D3908BD070130AF000030AE220130A0
:10008000AD000030AE003208AF003308F52001307B
:100090003C07B800B901B90D3D08B9070130AF0000
:1000A0000030AE2200303702031D58280A303602D5
:1000B000031C5C28B601B70100303902031D622819
:1000C0000A303802031C6628B801B901BC0183124A
:1000D0008519BC0A3C08013A031983283A08013AF9
:1000E000031D7B283B08003A031D7B28B40A031933
:1000F000B50ABA01BB013608B2003708B3003808A8
:10010000B0003908B1003408113A031D1B28350826
:10011000003A031D1B284630AB000030AC00013014
:10012000AD000030AE000930AF0000304422323064
:10013000AB000030AC000130AD000030AE0010303C
:10014000AF00003044224630AB000030AC0001303C
:10015000AD000030AE000930AF0000304422323034
:10016000AB000030AC000130AD000030AE0010300C
:10017000AF00003044224630AB000030AC0001300C
:10018000AD000030AE000930AF0000304422323004
:10019000AB000030AC000130AD000030AE001030DC
:1001A000AF00003044224630AB000030AC000130DC
:1001B000AD000030AE000930AF00003044223230D4
:1001C000AB000030AC000130AD000030AE001030AC
:1001D000AF00003044220A30B000B1010A30B20052
:1001E000B301B401B5011B280800BF002F08BE00F1
:1001F0002E082D08C200420C031800298312851214
:10020000031C0429831285163F083E04031D0E2992
:1002100083120510851005110512A7293E08013A21
:10022000031D1C293F08003A031D1C2983120514D5
:10023000851005110512A7293E08023A031D2A2937
:100240003F08003A031D2A29831205108514051161
:100250000512A7293E08033A031D38293F08003A32
:10026000031D382983120514851405110512A729C9
:100270003E08043A031D46293F08003A031D46295B
:1002800083120510851005150512A7293E08053AA9
:10029000031D54293F08003A031D542983120514F5
:1002A000851005150512A7293E08063A031D622987
:1002B0003F08003A031D62298312051085140515B5
:1002C0000512A7293E08073A031D70293F08003A86
:1002D000031D702983120514851405150512A7291D
:1002E0003E08083A031D7E293F08003A031D7E2977
:1002F00083120510851005110516A7293E08093A35
:10030000031D8C293F08003A031D8C298312051414
:10031000851005110516A7293E080A3A031D9A29DA
:100320003F08003A031D9A29831205108514051110
:100330000516A7293E08103A031DA7293F08003AD1
:10034000031DA7298312051085140515051608003D
:10035000D530AE000230AF008030000000008D22AA
:100360000000000083120000D1002F08D000D73019
:10037000D2000230D300831200005008D40051088C
:10038000D500FF30D007031CD103550854040319CE
:10039000402A04305207D400D501D50D5308D507A3
:1003A0005408AE005508AF008030000000008D22D8
:1003B0000000000083120000D7002F08D60052086A
:1003C000AE005308AF008030000000008D22000016
:1003D000000083120000D900D5002F08D400D800F7
:1003E00002305207D400D501D50D5308D507540863
:1003F000AE005508AF008030000000008D220000E4
:10040000000083120000D500DB002F08DA00D400C2
:10041000831200005608DA005708DB00FF30D607C9
:10042000031CD7035B085A040319392A5808AE0085
:100430005908AF008030000000007A220000000060
:1004400083120000DA00540883120313840083131C
:1004500083120000551883175A0883120313800073
:1004600083120000D80A0319D90AD40A0319D50A3D
:10047000082A063083120000D2070318D30ABB29CA
:100480000000000002280800C7002F08C6002E0840
:10049000C9002D08C8002C08CB002B08CA00CC01CD
:1004A000CD014C08CE004D08CF004B084F02031D74
:1004B0005B2A4A084E020318792A0030AD0000304A
:1004C000AE004608AF004708F5204808AF004908CD
:1004D000AE220130AD000030AE004608AF00470844
:1004E000F5204808AF004908AE22CC0A0319CD0A0E
:1004F000512A0800003A0319812A803A0319882AF0
:1005000000342E08840083132F1883170008080076
:100510002F088A002E0882000800003A0319952A45
:10052000803A03199F2AAF0100342E0884008313F8
:100530002F1883170008AF00840A00080800000085
:1005400000008822AD00AE0FAF03AF0A000000002C
:100550008822AC002D08AF002C080800BF002F082F
:10056000BE00C001C1013F084102031DB92A3E0877
:1005700040020318D42AFB30C2000430C300FF300D
:100580004207C400FF30C50043080318430FC507E6
:100590004408C2004508C30045084404031DBF2A9F
:1005A000C00A0319C10AB32A080001340034DD343B
:0C05B00002345C340034013400340034A8
:02400E00D73F9A
:00000001FF
