:020000040000FA
:100000000000B72983169F010730831299008316D9
:10001000990108308500831285010F30B000B101CD
:100020000F30B200B301B401B501B601B701B80198
:10003000B901BA01BB01B60A0319B70A3608B807F5
:1000400037080318370FB907BC0183128519BC0A9A
:100050003C08013A031D47280130BA00BB010030BB
:10006000AD000030AE003008AF0031081A21013079
:10007000AF000030BD220130AD000030AE003208CC
:10008000AF0033081A210130AF000030BD2200302C
:100090003702031D4D280A303602031C5128B601D1
:1000A000B70100303902031D57280A303802031CFB
:1000B0005B28B801B901BC0183128519BC0A3C0850
:1000C000013A031978283A08013A031D70283B08C1
:1000D000003A031D7028B40A0319B50ABA01BB011E
:1000E0003608B2003708B3003808B0003908B1004C
:1000F0003408113A031D1B283508003A031D1B283C
:100100004630AB000030AC000130AD000030AE0036
:100110000930AF00003053223230AB000030AC0069
:100120000130AD000030AE000030AF00003053228F
:100130004630AB000030AC000130AD000030AE0006
:100140000930AF00003053223230AB000030AC0039
:100150000130AD000030AE000030AF00003053225F
:100160004630AB000030AC000130AD000030AE00D6
:100170000930AF00003053223230AB000030AC0009
:100180000130AD000030AE000030AF00003053222F
:100190004630AB000030AC000130AD000030AE00A6
:1001A0000930AF00003053223230AB000030AC00D9
:1001B0000130AD000030AE000030AF0000305322FF
:1001C0004630AB000030AC000130AD000030AE0076
:1001D0000930AF00003053223230AB000030AC00A9
:1001E0000130AD000030AE000030AF0000305322CF
:1001F0004630AB000030AC000130AD000030AE0046
:100200000930AF00003053223230AB000030AC0078
:100210000130AD000030AE000030AF00003053229E
:100220000F30B000B1010F30B200B301B401B5011D
:100230001B280800BE002F08BD002E082D08C10095
:10024000410C0318252983128512031C29298312C6
:1002500085163E083D04031D3329831205108510C1
:1002600005110512B6293D08013A031D41293E0832
:10027000003A031D4129831205148510051105124A
:10028000B6293D08023A031D4F293E08003A031DD6
:100290004F2983120510851405110512B6293D0852
:1002A000033A031D5D293E08003A031D5D298312B0
:1002B0000514851405110512B6293D08043A031DDD
:1002C0006B293E08003A031D6B2983120510851027
:1002D00005150512B6293D08053A031D79293E0882
:1002E000003A031D7929831205148510051505129E
:1002F000B6293D08063A031D87293E08003A031D2A
:10030000872983120510851405150512B6293D08A5
:10031000073A031D95293E08003A031D95298312CB
:100320000514851405150512B6293D08083A031D64
:10033000A3293E08003A031DA32983120510851046
:1003400005110516B6293D08093A031DB1293E08D5
:10035000003A031DB12983120514851005110516F5
:10036000B629831205148514051505160800E43016
:10037000AE000230AF008030000000009C22000080
:10038000000083120000D0002F08CF00E630D1001B
:100390000230D200831200004F08D3005008D4006E
:1003A000FF30CF07031CD0035408530403194F2A0E
:1003B00004305107D300D401D40D5208D407530898
:1003C000AE005408AF008030000000009C22000006
:1003D000000083120000D6002F08D5005108AE009F
:1003E0005208AF008030000000009C220000000096
:1003F00083120000D800D4002F08D300D7000230A9
:100400005107D300D401D40D5208D4075308AE00CD
:100410005408AF008030000000009C220000000063
:1004200083120000D400DA002F08D900D300831211
:1004300000005508D9005608DA00FF30D507031C24
:10044000D6035A0859040319482A5708AE00580819
:10045000AF008030000000008922000000008312FD
:100460000000D900530883120313840083138312FE
:100470000000541883175908831203138000831255
:100480000000D70A0319D80AD30A0319D40A172A75
:10049000063083120000D1070318D20ACA290000CF
:1004A000000002280800C6002F08C5002E08C8005A
:1004B0002D08C7002C08CA002B08C900CB01CC01AD
:1004C0004B08CD004C08CE004A084E02031D6A2A94
:1004D00049084D020318882A0030AD000030AE00F4
:1004E0004508AF0046081A214708AF004808BD225A
:1004F0000130AD000030AE004508AF0046081A21BB
:100500004708AF004808BD22CB0A0319CC0A602A6D
:100510000800003A0319902A803A0319972A0034F8
:100520002E08840083132F188317000808002F0853
:100530008A002E0882000800003A0319A42A803A93
:100540000319AE2AAF0100342E08840083132F183C
:1005500083170008AF00840A0008080000000000AC
:100560009722AD00AE0FAF03AF0A00000000972244
:10057000AC002D08AF002C080800BE002F08BD00FD
:10058000BF01C0013E084002031DC82A3D083F02CA
:100590000318E32AFB30C1000430C200FF304107DA
:1005A000C300FF30C40042080318420FC4074308C9
:1005B000C1004408C20044084304031DCE2ABF0AF8
:1005C0000319C00AC22A080001340034EC34023492
:0A05D0005B340034013400340034C1
:02400E00D73F9A
:00000001FF
