:020000040000FA
:100000000000A12983169F010730831299008316EF
:10001000990108308500831285010A30B000B101D2
:100020000A30B200B301B401B501B601B701B8019D
:10003000B901BA01B60A0319B70AB80A0319B90A0D
:10004000BB0183128519BB0A3B08013A031D5028E6
:100050000130BA000030AD000030AE003008AF0013
:100060003108EE2001303807BB00BC01BC0D390857
:10007000BC070130AF000030A7220130AD000030D6
:10008000AE003208AF003308EE2001303B07B80065
:10009000B901B90D3C08B9070130AF000030A72203
:1000A00000303702031D56280A303602031C5A2836
:1000B000B601B70100303902031D60280A3038024A
:1000C000031C6428B801B901BB0183128519BB0A5E
:1000D0003B08013A03197C283A08013A031D7428A9
:1000E000B40A0319B50ABA013608B2003708B300DA
:1000F0003808B0003908B1003408113A031D1A2835
:100100003508003A031D1A284630AB000030AC0019
:100110000130AD000030AE000930AF0000303D22AC
:100120003230AB000030AC000130AD000030AE002A
:100130001030AF0000303D224630AB000030AC0044
:100140000130AD000030AE000930AF0000303D227C
:100150003230AB000030AC000130AD000030AE00FA
:100160001030AF0000303D224630AB000030AC0014
:100170000130AD000030AE000930AF0000303D224C
:100180003230AB000030AC000130AD000030AE00CA
:100190001030AF0000303D224630AB000030AC00E4
:1001A0000130AD000030AE000930AF0000303D221C
:1001B0003230AB000030AC000130AD000030AE009A
:1001C0001030AF0000303D220A30B000B1010A30DB
:1001D000B200B301B401B5011A280800BE002F080F
:1001E000BD002E082D08C100410C0318F928831208
:1001F0008512031CFD28831285163E083D04031D4D
:10020000072983120510851005110512A0293D0844
:10021000013A031D15293E08003A031D15298312D2
:100220000514851005110512A0293D08023A031D89
:1002300023293E08003A031D232983120510851443
:1002400005110512A0293D08033A031D31293E0876
:10025000003A031D31298312051485140511051276
:10026000A0293D08043A031D3F293E08003A031D1A
:100270003F2983120510851005150512A0293D0898
:10028000053A031D4D293E08003A031D4D298312EE
:100290000514851005150512A0293D08063A031D11
:1002A0005B293E08003A031D5B2983120510851463
:1002B00005150512A0293D08073A031D69293E08C6
:1002C000003A031D692983120514851405150512CA
:1002D000A0293D08083A031D77293E08003A031D6E
:1002E000772983120510851005110516A0293D08F0
:1002F000093A031D85293E08003A031D852983120A
:100300000514851005110516A0293D080A3A031D9C
:1003100093293E08003A031D932983120510851482
:1003200005110516A0293D08103A031DA0293E0815
:10033000003A031DA0298312051085140515051622
:100340000800CE30AE000230AF0080300000000068
:1003500086220000000083120000D0002F08CF008A
:10036000D030D1000230D200831200004F08D300F9
:100370005008D400FF30CF07031CD00354085304A7
:100380000319392A04305107D300D401D40D52087F
:10039000D4075308AE005408AF00803000000000BE
:1003A00086220000000083120000D6002F08D5002E
:1003B0005108AE005208AF008030000000008622D5
:1003C0000000000083120000D800D4002F08D300E2
:1003D000D70002305107D300D401D40D5208D407FE
:1003E0005308AE005408AF008030000000008622A1
:1003F0000000000083120000D400DA002F08D900AA
:10040000D300831200005508D9005608DA00FF30E7
:10041000D507031CD6035A0859040319322A570872
:10042000AE005808AF0080300000000073220000CA
:10043000000083120000D9005308831203138400C4
:10044000831383120000541883175908831203136F
:10045000800083120000D70A0319D80AD30A0319AF
:10046000D40A012A063083120000D1070318D20AE9
:10047000B4290000000002280800C6002F08C500AB
:100480002E08C8002D08C7002C08CA002B08C90078
:10049000CB01CC014B08CD004C08CE004A084E02DF
:1004A000031D542A49084D020318722A0030AD007A
:1004B0000030AE004508AF004608EE204708AF0008
:1004C0004808A7220130AD000030AE004508AF005B
:1004D0004608EE204708AF004808A722CB0A0319B8
:1004E000CC0A4A2A0800003A03197A2A803A0319EA
:1004F000812A00342E08840083132F1883170008E4
:1005000008002F088A002E0882000800003A03190C
:100510008E2A803A0319982AAF0100342E088400ED
:1005200083132F1883170008AF00840A00080800FF
:10053000000000008122AD00AE0FAF03AF0A000043
:1005400000008122AC002D08AF002C080800BE007E
:100550002F08BD00BF01C0013E084002031DB22AA2
:100560003D083F020318CD2AFB30C1000430C20011
:10057000FF304107C300FF30C40042080318420F98
:10058000C4074308C1004408C20044084304031DD3
:10059000B82ABF0A0319C00AAC2A08000134003483
:0E05A000D63402345B340034013400340034AD
:02400E00D73F9A
:00000001FF
