:020000040000FA
:1000000000009F28BE002F08BD002E082D08BF004D
:100010003F0C03180D2883128512031C112883122C
:1000200085163E083D04031D1B288312051085100C
:10003000051105129E283D08013A031D29283E0896
:10004000003A031D29288312051485100511051295
:100050009E283D08023A031D37283E08003A031D3A
:100060003728831205108514051105129E283D08B6
:10007000033A031D45283E08003A031D4528831214
:1000800005148514051105129E283D08043A031D28
:1000900053283E08003A031D53288312051085108B
:1000A000051505129E283D08053A031D61283E08E6
:1000B000003A031D612883120514851005150512E9
:1000C0009E283D08063A031D6F283E08003A031D8E
:1000D0006F28831205108514051505129E283D080A
:1000E000073A031D7D283E08003A031D7D28831230
:1000F00005148514051505129E283D08083A031DB0
:100100008B283E08003A031D8B28831205108510AA
:10011000051105169E283D08093A031D99283E0839
:10012000003A031D99288312051485100511051640
:100130009E28831205148514051505160800D7306E
:10014000AE000130AF008030000000008F210000C1
:10015000000083120000C1002F08C000D930C20087
:100160000130C300831200004008C4004108C500EC
:10017000FF30C007031CC103450844040319372995
:1001800004304207C400C501C50D4308C507440833
:10019000AE004508AF008030000000008F21000055
:1001A000000083120000C7002F08C6004208AE00FE
:1001B0004308AF008030000000008F2100000000E5
:1001C00083120000C900C5002F08C400C800023017
:1001D0004207C400C501C50D4308C5074408AE0069
:1001E0004508AF008030000000008F2100000000B3
:1001F00083120000C500CB002F08CA00C400831280
:1002000000004608CA004708CB00FF30C607031CA1
:10021000C7034B084A04031930294808AE004908AF
:10022000AF008030000000007C210000000083123D
:100230000000CA004408831203138400831383124E
:100240000000451883174A088312031380008312A5
:100250000000C80A0319C90AC40A0319C50AFF28FD
:10026000063083120000C2070318C30AB228000038
:1002700000003B29080083169F0107308312990074
:100280008316990108308500831285010F30B00074
:10029000B1010F30B200B301B40183128519B40A61
:1002A0003408013A031D6C290030AD000030AE0067
:1002B0003008AF00310802200130AF000030B0211B
:1002C0000130AD000030AE003208AF00330802202C
:1002D0000130AF000030B021B40183128519B40A97
:1002E0003408013A03194C290230B000B10107303B
:1002F000B200B3014C290800003A03198329803A5F
:1003000003198A2900342E08840083132F188317B9
:10031000000808002F088A002E0882000800003A12
:1003200003199729803A0319A129AF0100342E0837
:10033000840083132F1883170008AF00840A000875
:100340000800000000008A21AD00AE0FAF03AF0A25
:10035000000000008A21AC002D08AF002C08080026
:10036000B6002F08B500B701B80136083802031DE2
:10037000BB29350837020318D629FB30B9000430F1
:10038000BA00FF303907BB00FF30BC003A08031841
:100390003A0FBC073B08B9003C08BA003C083B04D4
:1003A000031DC129B70A0319B80AB5290800013489
:1003B0000034DF3401344C34003401340034003470
:02400E00D73F9A
:00000001FF
